{
  "_format": "hh-sol-artifact-1",
  "contractName": "ImageVerdictRegistry",
  "sourceName": "contracts/ImageVerdictRegistry.sol",
  "abi": [
    {
      "inputs": [],
      "stateMutability": "nonpayable",
      "type": "constructor"
    },
    {
      "inputs": [
        {
          "internalType": "address",
          "name": "owner",
          "type": "address"
        }
      ],
      "name": "OwnableInvalidOwner",
      "type": "error"
    },
    {
      "inputs": [
        {
          "internalType": "address",
          "name": "account",
          "type": "address"
        }
      ],
      "name": "OwnableUnauthorizedAccount",
      "type": "error"
    },
    {
      "anonymous": false,
      "inputs": [
        {
          "indexed": true,
          "internalType": "address",
          "name": "previousOwner",
          "type": "address"
        },
        {
          "indexed": true,
          "internalType": "address",
          "name": "newOwner",
          "type": "address"
        }
      ],
      "name": "OwnershipTransferred",
      "type": "event"
    },
    {
      "anonymous": false,
      "inputs": [
        {
          "indexed": true,
          "internalType": "bytes32",
          "name": "imageHash",
          "type": "bytes32"
        },
        {
          "indexed": false,
          "internalType": "string",
          "name": "verdict",
          "type": "string"
        }
      ],
      "name": "VerdictRecorded",
      "type": "event"
    },
    {
      "inputs": [
        {
          "internalType": "bytes32",
          "name": "_imageHash",
          "type": "bytes32"
        }
      ],
      "name": "getVerdict",
      "outputs": [
        {
          "internalType": "string",
          "name": "",
          "type": "string"
        }
      ],
      "stateMutability": "view",
      "type": "function"
    },
    {
      "inputs": [],
      "name": "owner",
      "outputs": [
        {
          "internalType": "address",
          "name": "",
          "type": "address"
        }
      ],
      "stateMutability": "view",
      "type": "function"
    },
    {
      "inputs": [
        {
          "internalType": "bytes32",
          "name": "_imageHash",
          "type": "bytes32"
        },
        {
          "internalType": "string",
          "name": "_verdict",
          "type": "string"
        }
      ],
      "name": "recordVerdict",
      "outputs": [],
      "stateMutability": "nonpayable",
      "type": "function"
    },
    {
      "inputs": [],
      "name": "renounceOwnership",
      "outputs": [],
      "stateMutability": "nonpayable",
      "type": "function"
    },
    {
      "inputs": [
        {
          "internalType": "address",
          "name": "newOwner",
          "type": "address"
        }
      ],
      "name": "transferOwnership",
      "outputs": [],
      "stateMutability": "nonpayable",
      "type": "function"
    }
  ],
  "bytecode": "0x608060405234801561001057600080fd5b5033600073ffffffffffffffffffffffffffffffffffffffff168173ffffffffffffffffffffffffffffffffffffffff16036100845760006040517f1e4fbdf700000000000000000000000000000000000000000000000000000000815260040161007b919061019e565b60405180910390fd5b6100938161009960201b60201c565b506101b9565b60008060009054906101000a900473ffffffffffffffffffffffffffffffffffffffff169050816000806101000a81548173ffffffffffffffffffffffffffffffffffffffff021916908373ffffffffffffffffffffffffffffffffffffffff1602179055508173ffffffffffffffffffffffffffffffffffffffff168173ffffffffffffffffffffffffffffffffffffffff167f8be0079c531659141344cd1fd0a4f28419497f9722a3daafe3b4186f6b6457e060405160405180910390a35050565b600073ffffffffffffffffffffffffffffffffffffffff82169050919050565b60006101888261015d565b9050919050565b6101988161017d565b82525050565b60006020820190506101b3600083018461018f565b92915050565b610d20806101c86000396000f3fe608060405234801561001057600080fd5b50600436106100575760003560e01c80630b1e39061461005c578063715018a6146100785780638184717b146100825780638da5cb5b146100b2578063f2fde38b146100d0575b600080fd5b6100766004803603810190610071919061067c565b6100ec565b005b610080610231565b005b61009c600480360381019061009791906106d8565b610245565b6040516100a99190610784565b60405180910390f35b6100ba6102ea565b6040516100c791906107e7565b60405180910390f35b6100ea60048036038101906100e5919061082e565b610313565b005b6100f4610399565b604051602001610103906108b2565b604051602081830303815290604052805190602001208160405160200161012a91906108f8565b60405160208183030381529060405280519060200120148061019557506040516020016101569061095b565b604051602081830303815290604052805190602001208160405160200161017d91906108f8565b60405160208183030381529060405280519060200120145b6101d4576040517f08c379a00000000000000000000000000000000000000000000000000000000081526004016101cb906109e2565b60405180910390fd5b806001600084815260200190815260200160002090816101f49190610c18565b50817ff201f0d06e6f3202f2aabe2218f97a7abd1fb3adf2dd6c707dd9348bd6fea3ab826040516102259190610784565b60405180910390a25050565b610239610399565b6102436000610420565b565b606060016000838152602001908152602001600020805461026590610a31565b80601f016020809104026020016040519081016040528092919081815260200182805461029190610a31565b80156102de5780601f106102b3576101008083540402835291602001916102de565b820191906000526020600020905b8154815290600101906020018083116102c157829003601f168201915b50505050509050919050565b60008060009054906101000a900473ffffffffffffffffffffffffffffffffffffffff16905090565b61031b610399565b600073ffffffffffffffffffffffffffffffffffffffff168173ffffffffffffffffffffffffffffffffffffffff160361038d5760006040517f1e4fbdf700000000000000000000000000000000000000000000000000000000815260040161038491906107e7565b60405180910390fd5b61039681610420565b50565b6103a16104e4565b73ffffffffffffffffffffffffffffffffffffffff166103bf6102ea565b73ffffffffffffffffffffffffffffffffffffffff161461041e576103e26104e4565b6040517f118cdaa700000000000000000000000000000000000000000000000000000000815260040161041591906107e7565b60405180910390fd5b565b60008060009054906101000a900473ffffffffffffffffffffffffffffffffffffffff169050816000806101000a81548173ffffffffffffffffffffffffffffffffffffffff021916908373ffffffffffffffffffffffffffffffffffffffff1602179055508173ffffffffffffffffffffffffffffffffffffffff168173ffffffffffffffffffffffffffffffffffffffff167f8be0079c531659141344cd1fd0a4f28419497f9722a3daafe3b4186f6b6457e060405160405180910390a35050565b600033905090565b6000604051905090565b600080fd5b600080fd5b6000819050919050565b61051381610500565b811461051e57600080fd5b50565b6000813590506105308161050a565b92915050565b600080fd5b600080fd5b6000601f19601f8301169050919050565b7f4e487b7100000000000000000000000000000000000000000000000000000000600052604160045260246000fd5b61058982610540565b810181811067ffffffffffffffff821117156105a8576105a7610551565b5b80604052505050565b60006105bb6104ec565b90506105c78282610580565b919050565b600067ffffffffffffffff8211156105e7576105e6610551565b5b6105f082610540565b9050602081019050919050565b82818337600083830152505050565b600061061f61061a846105cc565b6105b1565b90508281526020810184848401111561063b5761063a61053b565b5b6106468482856105fd565b509392505050565b600082601f83011261066357610662610536565b5b813561067384826020860161060c565b91505092915050565b60008060408385031215610693576106926104f6565b5b60006106a185828601610521565b925050602083013567ffffffffffffffff8111156106c2576106c16104fb565b5b6106ce8582860161064e565b9150509250929050565b6000602082840312156106ee576106ed6104f6565b5b60006106fc84828501610521565b91505092915050565b600081519050919050565b600082825260208201905092915050565b60005b8381101561073f578082015181840152602081019050610724565b60008484015250505050565b600061075682610705565b6107608185610710565b9350610770818560208601610721565b61077981610540565b840191505092915050565b6000602082019050818103600083015261079e818461074b565b905092915050565b600073ffffffffffffffffffffffffffffffffffffffff82169050919050565b60006107d1826107a6565b9050919050565b6107e1816107c6565b82525050565b60006020820190506107fc60008301846107d8565b92915050565b61080b816107c6565b811461081657600080fd5b50565b60008135905061082881610802565b92915050565b600060208284031215610844576108436104f6565b5b600061085284828501610819565b91505092915050565b600081905092915050565b7f7265616c00000000000000000000000000000000000000000000000000000000600082015250565b600061089c60048361085b565b91506108a782610866565b600482019050919050565b60006108bd8261088f565b9150819050919050565b60006108d282610705565b6108dc818561085b565b93506108ec818560208601610721565b80840191505092915050565b600061090482846108c7565b915081905092915050565b7f73796e7468657469630000000000000000000000000000000000000000000000600082015250565b600061094560098361085b565b91506109508261090f565b600982019050919050565b600061096682610938565b9150819050919050565b7f56657264696374206d75737420626520277265616c27206f72202773796e746860008201527f6574696327000000000000000000000000000000000000000000000000000000602082015250565b60006109cc602583610710565b91506109d782610970565b604082019050919050565b600060208201905081810360008301526109fb816109bf565b9050919050565b7f4e487b7100000000000000000000000000000000000000000000000000000000600052602260045260246000fd5b60006002820490506001821680610a4957607f821691505b602082108103610a5c57610a5b610a02565b5b50919050565b60008190508160005260206000209050919050565b60006020601f8301049050919050565b600082821b905092915050565b600060088302610ac47fffffffffffffffffffffffffffffffffffffffffffffffffffffffffffffffff82610a87565b610ace8683610a87565b95508019841693508086168417925050509392505050565b6000819050919050565b6000819050919050565b6000610b15610b10610b0b84610ae6565b610af0565b610ae6565b9050919050565b6000819050919050565b610b2f83610afa565b610b43610b3b82610b1c565b848454610a94565b825550505050565b600090565b610b58610b4b565b610b63818484610b26565b505050565b5b81811015610b8757610b7c600082610b50565b600181019050610b69565b5050565b601f821115610bcc57610b9d81610a62565b610ba684610a77565b81016020851015610bb5578190505b610bc9610bc185610a77565b830182610b68565b50505b505050565b600082821c905092915050565b6000610bef60001984600802610bd1565b1980831691505092915050565b6000610c088383610bde565b9150826002028217905092915050565b610c2182610705565b67ffffffffffffffff811115610c3a57610c39610551565b5b610c448254610a31565b610c4f828285610b8b565b600060209050601f831160018114610c825760008415610c70578287015190505b610c7a8582610bfc565b865550610ce2565b601f198416610c9086610a62565b60005b82811015610cb857848901518255600182019150602085019450602081019050610c93565b86831015610cd55784890151610cd1601f891682610bde565b8355505b6001600288020188555050505b50505050505056fea2646970667358221220de988e5fa63eba6894a433aa4c5410ea54232b0b1e3c701c40f088e0bc611ba764736f6c63430008140033",
  "linkReferences": {},
  "deployedLinkReferences": {}
}